:100000000C9457010C9488010C9488010C9488017D
:100010000C9488010C9488010C9488010C9488013C
:100020000C9488010C9488010C9488010C9488012C
:100030000C9488010C9488010C9488010C9488011C
:100040000C9488010C9488010C9488010C9488010C
:100050000C9488010C9488010C9488010C94BA04C7
:100060000C9488010C9488010C9488010C948801EC
:100070000C9488010C9488010C9488010C948801DC
:100080000C9488010C9488010C9488010C948801CC
:100090000C9488010C9488010C9488010C948801BC
:1000A0000C9488010C9488010C9488010C948801AC
:1000B0000C9488010C9488010C9488010C9488019C
:1000C0000C9488010C9488010C9488010C9488018C
:1000D0000C9488010C9488010C9488010C9488017C
:1000E0000C948801B701BA01AD01B101F101BE0163
:1000F000C201C801CC01D001D601DA01DE01F10153
:10010000E401E801EC0144034A035403620364037D
:100110006A0374038203940396030C9496030C946D
:10012000B7010C94D6010C94E4010C94F1010C94E9
:10013000B1010C94BA010C94C8010C94BE010C944A
:10014000DE010C94CC010C94DA010C9474030C9431
:10015000EC010C94AD010C949D080C94C2010C941C
:1001600044030C9454030C946A030C9420090C94DB
:1001700064030C94E8010C94D0010C9482030C9459
:1001800094030C944A030C946203000021002400A1
:1001900027002A002D003000330001010000040177
:1001A00007010A0100002200250028002B002E0074
:1001B0003100340002010000050108010B010000BC
:1001C00020002300260029002C002F00320000010F
:1001D00000000301060109010505050507050808DA
:1001E0000808020202020A0A0808040404040101C1
:1001F00001010101010103030303030303030407D6
:1002000007070C0C0C0C0C0C0C0C0202020206066C
:100210000606060606060B0B0B0B0B0B0B0B01025F
:100220001020200808102040102040800201020108
:1002300008040201010204081020408080402010C0
:100240000804020180040201804020100804020119
:100250000804020101020408102040800102040881
:10026000102040800000090A02080B0C0D0706034D
:100270000401000000000000000000000000000079
:10028000000000000000000000000000000000006E
:1002900011100F000000000000000000000000002E
:1002A000000000000000000000009D08200911244B
:1002B0001FBECFEFD1E2DEBFCDBF00E00CBF12E02A
:1002C000A0E0B2E0E0E9F7E100E00BBF02C0079078
:1002D0000D92AC35B107D9F723E0ACE5B2E001C02F
:1002E0001D92A431B207E1F711E0C6E5D1E000E0CC
:1002F00006C021970109802FFE010E94780BC535A9
:10030000D10780E00807A9F70E9404050C942C0986
:100310000C94000020910C0330910D038217930779
:1003200038F420910803309109032115310529F48F
:1003300010920F038FE093E00895820F931F0895AA
:1003400090E0FC013197E131F10508F04AC08827BF
:10035000EE58FF4F8F4F0C94780B809180008F7771
:1003600003C0809180008F7D80938000089584B5C4
:100370008F7702C084B58F7D84BD08958091B000D1
:100380008F7703C08091B0008F7D8093B000089577
:10039000809190008F7707C0809190008F7D03C07F
:1003A00080919000877F8093900008958091A000B5
:1003B0008F7707C08091A0008F7D03C08091A0003F
:1003C000877F8093A0000895809120018F7707C0D8
:1003D000809120018F7D03C080912001877F8093D1
:1003E00020010895CF93DF93282F30E0F901EC59D5
:1003F000FD4F8491F901E25EFD4FD491F901E8527D
:10040000FE4FC491CC2391F081110E94A001EC2FEA
:10041000F0E0EE0FFF1FE254FE4FA591B491EC9176
:10042000ED2381E090E021F480E002C080E090E0E4
:10043000DF91CF9108951F93CF93DF93282F30E062
:10044000F901EC59FD4F8491F901E25EFD4FD49121
:10045000F901E852FE4FC491CC23C1F0162F81114F
:100460000E94A001EC2FF0E0EE0FFF1FEC55FE4FB5
:10047000A591B4919FB7F894111104C08C91D095B7
:10048000D82302C0EC91DE2BDC939FBFDF91CF918C
:100490001F910895CF93DF9390E0FC01E25EFD4F42
:1004A0002491FC01E852FE4F8491882361F190E091
:1004B000880F991FFC01E657FE4FC591D491FC01AE
:1004C000EC55FE4FA591B491611109C09FB7F89406
:1004D0008881209582238883EC912E230BC0623083
:1004E00061F49FB7F8948881322F309583238883F5
:1004F000EC912E2B2C939FBF06C08FB7F894E88108
:100500002E2B28838FBFDF91CF9108953FB7F894AA
:100510008091610290916202A0916302B0916402A5
:1005200026B5A89B05C02F3F19F00196A11DB11D4E
:100530003FBFBA2FA92F982F8827820F911DA11D89
:10054000B11DBC01CD0142E0660F771F881F991FC6
:100550004A95D1F70895CF92DF92EF92FF92CF9311
:10056000DF936B017C010E948602EB01C114D10470
:10057000E104F10479F00E9486026C1B7D0B683E59
:100580007340A0F381E0C81AD108E108F108C8510E
:10059000DC4FECCFDF91CF91FF90EF90DF90CF90C9
:1005A00008950F931F93CF93DF93EC018B01888500
:1005B00099850297F1F46130710569F024F4672B95
:1005C000C1F460E009C06230710559F06330710513
:1005D00081F460E007C061E08C850E941B0261E04D
:1005E00005C061E08C850E941B0260E08E850E9440
:1005F0001B02888599850497B9F501301105B1F082
:100600004CF40115110581F561E08C850E941B02F7
:1006100060E011C002301105B9F00330110521F579
:1006200061E08C850E941B0260E013C060E08C8555
:100630000E941B0261E08E850E941B0261E0888996
:100640000E941B0260E00DC060E08C850E941B02CE
:1006500061E08E850E941B0260E088890E941B0277
:1006600061E08A890E941B0288859985059709F0B7
:1006700075C00A30110508F071C0F8018827ED57E0
:10068000FF4F8F4F0C94780B60E08C850E941B020B
:1006900061E051C060E08C850E941B0261E08E85A4
:1006A0000E941B0260E04BC060E08C850E941B0230
:1006B00061E08E850E941B0260E088890E941B0217
:1006C00061E041C060E001C061E08C850E941B02D6
:1006D00061E005C061E08C850E941B0260E08E85B0
:1006E0000E941B0260E009C061E08C850E941B0231
:1006F00060E08E850E941B0261E088890E941B02D7
:1007000061E00DC061E08C850E941B0260E08E8577
:100710000E941B0261E088890E941B0260E08A89B6
:100720000E941B0260E013C061E001C060E08C85A4
:100730000E941B0260E08E850E941B0261E0888996
:100740000E941B0260E08A890E941B0261E08C8982
:10075000DF91CF911F910F910C941B02DF91CF91EC
:100760001F910F9108954F925F926F927F928F9297
:100770009F92AF92BF92CF92DF92EF92FF920F9330
:100780001F93CF93DF93EC018B0177FF04C0002709
:100790001127061B170B161617062CF481E090E0A4
:1007A0009983888304C0672B11F01982188284E032
:1007B000E82EF12C9AE0C92ED12C0115110509F46F
:1007C00049C00E9486028E889F88A88CB98C2B0114
:1007D0003C01481859086A087B088A809B80AC80D5
:1007E000BD80481459046A047B0438F36E8B7F8BF8
:1007F000888F998F288139818A859B8521303105A1
:1008000059F401969B878A872E813F81821793072F
:1008100071F41B861A860BC0892B21F48E819F816F
:100820009B878A878A859B8501979B878A8701504A
:100830001109288539858A859B852530310511F474
:10084000B60101C0B7010E94450BBC01CE010E9458
:10085000D102B3CFDF91CF911F910F91FF90EF9015
:10086000DF90CF90BF90AF909F908F907F906F90D0
:100870005F904F900895EF92FF920F931F93CF9345
:10088000DF93EC01842F1B861A86198218821E8A38
:100890001F8A188E198E7F836E834C875D873F87F2
:1008A0002E87198B088BFB8AEA8A61E00E944A0234
:1008B00061E08E850E944A0261E088890E944A02B6
:1008C00061E08A890E944A021D8A1C8A84E090E0C5
:1008D00099878887DF91CF911F910F91FF90EF90BB
:1008E0000895CF93DF93EC0188819981009711F0EF
:1008F0000E94C709198218821D821C821B821A82DB
:10090000DF91CF910895EF92FF920F931F93CF93B2
:10091000DF93EC017B018A0188819981009729F09E
:100920002A813B8124173507B0F4B8016F5F7F4FF0
:100930000E94500A009759F0998388831B830A8389
:100940002C813D81232B39F4FC01108204C0CE019F
:100950000E94710407C01D830C83B70188819981AF
:100960000E943E0BCE01DF91CF911F910F91FF901E
:10097000EF9008951F920F920FB60F9211242F93AC
:100980003F938F939F93AF93BF9380915D0290911C
:100990005E02A0915F02B091600230915C0223E0A0
:1009A000230F2D3720F40196A11DB11D05C026E8A7
:1009B000230F0296A11DB11D20935C0280935D025E
:1009C00090935E02A0935F02B093600280916102F7
:1009D00090916202A0916302B09164020196A11D00
:1009E000B11D8093610290936202A0936302B09361
:1009F0006402BF91AF919F918F913F912F910F9082
:100A00000FBE0F901F901895CF93DF93CDB7DEB731
:100A100028970FB6F894DEBF0FBECDBF789484B58B
:100A2000826084BD84B5816084BD85B5826085BDEA
:100A300085B5816085BD80916E00816080936E0078
:100A4000109281008091810082608093810080916A
:100A5000810081608093810080918000816080931B
:100A600080008091B10084608093B1008091B000DB
:100A700081608093B00080919100826080939100AA
:100A800080919100816080939100809190008160BD
:100A9000809390008091A10082608093A10080915A
:100AA000A10081608093A1008091A000816080936B
:100AB000A000809121018260809321018091210119
:100AC00081608093210180912001816080932001C9
:100AD00080917A00846080937A0080917A008260AD
:100AE00080937A0080917A00816080937A0080916F
:100AF0007A00806880937A001092C1002091ED0204
:100B00003091EE02032E000C440B550B812C67E84C
:100B1000962E63E9A62E63E0B62EC501B4010E94AD
:100B2000590B74EBC72ED12CE12CF12CCA01B90161
:100B3000A70196010E94590B2093E9023093EA0223
:100B40004093EB025093EC022091D3023091D402F7
:100B5000032E000C440B550BC501B4010E94590B28
:100B6000CA01B901A70196010E94590B2093CF0237
:100B70003093D0024093D1025093D20220919F0231
:100B80003091A002032E000C440B550BC501B4019B
:100B90000E94590BCA01B901A70196010E94590B85
:100BA00020939B0230939C0240939D0250939E029F
:100BB0002091B9023091BA02032E000C440B550B60
:100BC000C501B4010E94590BCA01B901A7019601E0
:100BD0000E94590B2093B5023093B6024093B7029E
:100BE0005093B8022091850230918602032E000CAA
:100BF000440B550BC501B4010E94590BCA01B90140
:100C0000A70196010E94590B209381023093820222
:100C1000409383025093840220916B0230916C02C6
:100C2000032E000C440B550BC501B4010E94590B57
:100C3000CA01B901A70196010E94590B20936702CE
:100C4000309368024093690250936A0260E088E33F
:100C50000E944A0260E087E30E944A0261E08DE060
:100C60000E944A02E0E0CE2EE0E0DE2EF5E0EF2E1C
:100C7000F12C88E30E94F201892B09F41DC1F09246
:100C80000102E092000268EB7BE080E090E00E94CD
:100C9000AB0260910103709102036115710549F087
:100CA000409105035091060388E093E00E9483047D
:100CB00004C088E093E00E947104A0900C03B090FF
:100CC0000D0300E010E00A151B050CF0F5C0C8018B
:100CD0000E948A01FC019080C80101960E948A014D
:100CE000FC018081082E000C990BC097F6E49F163A
:100CF00099F1F915BCF022E4921609F4ADC0E4E4D0
:100D00009E12C9C0880F991FFC01E05FFD4F6081F2
:100D100071818FE792E00E94B30380908B029090E4
:100D20008C028AC0F2E59F1609F467C025E5921689
:100D300099F1ECE49E12AFC0880F991FFC01E05FAF
:100D4000FD4F6081718183EB92E00E94B30380903C
:100D5000BF029090C00240C0880F991FFC01E05F65
:100D6000FD4F6081718187EE92E00E94B303809015
:100D7000F3029090F4028091F3029091F4020396B2
:100D8000881599050CF487C060E0882D0E941B022D
:100D9000FFEF8F1A9F0AEFCF880F991FFC01E05FCA
:100DA000FD4F608171818DEC92E00E94B3038090D1
:100DB000D9029090DA028091D9029091DA020396DA
:100DC000881599050CF467C060E0882D0E941B020D
:100DD0002FEF821A920AEFCF8091BF029091C0024A
:100DE0000396881599050CF456C060E0882D0E9482
:100DF0001B028FEF881A980AEFCF880F991FFC010A
:100E0000E05FFD4F6081718189E992E00E94B30348
:100E10008090A5029090A6028091A5029091A602D2
:100E2000039688159905BCF160E0882D0E941B028D
:100E3000EFEF8E1A9E0AF0CF80918B0290918C0278
:100E40000396881599053CF160E0882D0E941B02ED
:100E5000FFEF8F1A9F0AF0CF880F991FFC01E05F08
:100E6000FD4F6081718185E692E00E94B30380901E
:100E700071029090720280917102909172020396B9
:100E80008815990544F060E0882D0E941B022FEF21
:100E9000821A920AF0CF61E08DE00E941B0265E0A9
:100EA00070E080E090E00E94AB0260E08DE00E9484
:100EB0001B020E5F1F4F07CF87E30E94F201892BB1
:100EC00009F434C1F0920102E092000268EB7BE089
:100ED00080E090E00E94AB0288E0E8E0F2E0DE0112
:100EE000119601900D928A95E1F76091010370913E
:100EF00002036115710549F0409105035091060305
:100F000088E093E00E94830404C088E093E00E949C
:100F1000710400910C0310910D030250110917FD8B
:100F200005C1C8010E948A01FC01B080C801019678
:100F30000E948A01FC018081082E000C990BC09749
:100F4000F6E4BF16C9F1FB15D4F022E4B21609F499
:100F5000BCC0E4E4BE12DBC0880F991FE1E0F0E002
:100F6000EC0FFD1FE80FF91F608171818FE792E0A0
:100F70000E94B303A0908B02B0908C0296C0F2E561
:100F8000BF1609F470C025E5B216C9F1ECE4BE1233
:100F9000BEC0880F991FE1E0F0E0EC0FFD1FE80FE5
:100FA000F91F6081718183EB92E00E94B303A090EE
:100FB000BF02B090C00246C0880F991FE1E0F0E088
:100FC000EC0FFD1FE80FF91F6081718187EE92E041
:100FD0000E94B303A090F302B090F4028091F30258
:100FE0009091F40203968A159B050CF490C060E082
:100FF0008A2D0E941B02FFEFAF1ABF0AEFCF880FA6
:10100000991FE1E0F0E0EC0FFD1FE80FF91F608190
:1010100071818DEC92E00E94B303A090D902B09050
:10102000DA028091D9029091DA0203968A159B0523
:101030000CF46DC060E08A2D0E941B022FEFA21AF3
:10104000B20AEFCF8091BF029091C00203968A1539
:101050009B050CF45CC060E08A2D0E941B028FEFA0
:10106000A81AB80AEFCF880F991FE1E0F0E0EC0F63
:10107000FD1FE80FF91F6081718189E992E00E94EC
:10108000B303A090A502B090A6028091A502909112
:10109000A60203968A159B05D4F160E08A2D0E9472
:1010A0001B02EFEFAE1ABE0AF0CF80918B02909137
:1010B0008C0203968A159B0554F160E08A2D0E94EC
:1010C0001B02FFEFAF1ABF0AF0CF880F991FE1E0B4
:1010D000F0E0EC0FFD1FE80FF91F6081718185E6DC
:1010E00092E00E94B303A0907102B09072028091CE
:1010F00071029091720203968A159B0544F060E09C
:101100008A2D0E941B022FEFA21AB20AF0CF61E0D3
:101110008DE00E941B0265E070E080E090E00E949C
:10112000AB0260E08DE00E941B02F7CEC114D10437
:1011300009F49FCD0E9400009CCDEF92FF920F9387
:101140001F93E1E0F3E01182108213821282158274
:101150001482168242E450E068E172E0CF010E94FE
:101160008304E8E0F3E01182108213821282158278
:101170001482168240E050E06AE572E0CF010E94DE
:1011800083048FE1E82EF12C0EE110E02DE130E038
:101190004CE150E063ED70E087EE92E00E943B048A
:1011A00099E1E92EF12C08E110E027E130E046E179
:1011B00050E064ED70E08FE792E00E943B0425E28E
:1011C000E22EF12C04E210E023E230E042E250E0B3
:1011D0006EEC70E085E692E00E943B0439E2E32E7B
:1011E000F12C08E210E027E230E046E250E06EEC3D
:1011F00070E083EB92E00E943B044FE2E42EF12C7E
:101200000EE210E02DE230E04CE250E06DEC70E0D8
:101210008DEC92E00E943B0455E3E52EF12C04E3B3
:1012200010E023E330E042E350E060ED70E089E954
:1012300092E00E943B041F910F91FF90EF90089560
:1012400080910803909109030E94C70980910103CE
:10125000909102030C94C709F8940C94B60B0F9369
:101260001F93CF93DF938230910510F482E090E0DA
:10127000E0911203F091130320E030E0A0E0B0E031
:10128000309719F140815181028113814817590724
:10129000C8F08417950769F4109731F012960C93F3
:1012A000129713961C9327C00093120310931303F5
:1012B00022C02115310519F04217530718F49A017D
:1012C000BD01EF01DF01F801DBCF21153105F9F098
:1012D000281B390B2430310580F48A819B816115EC
:1012E000710521F0FB019383828304C09093130363
:1012F00080931203FE01329644C0FE01E20FF31FF9
:101300008193919322503109398328833AC02091E7
:10131000100330911103232B41F4209104023091EA
:1013200005023093110320931003209102023091A3
:1013300003022115310541F42DB73EB74091060255
:1013400050910702241B350BE0911003F09111031B
:10135000E217F307A0F42E1B3F0B2817390778F08C
:10136000AC014E5F5F4F2417350748F04E0F5F1FEB
:1013700050931103409310038193919302C0E0E0D6
:10138000F0E0CF01DF91CF911F910F910895CF939E
:10139000DF93009709F481C0FC0132971382128217
:1013A000A0911203B0911303109781F42081318131
:1013B000820F931F209110033091110328173907D2
:1013C00051F5F0931103E093100367C0ED0120E0A5
:1013D00030E0CE17DF0740F44A815B819E01411562
:1013E0005105F1F0EA01F5CFD383C28340815181E9
:1013F000840F951FC817D90759F488819981840FE4
:10140000951F0296918380838A819B819383828337
:101410002115310529F4F0931303E09312033DC025
:10142000E901FB83EA8349915991C40FD51FEC1759
:10143000FD0761F480819181840F951F0296E90177
:1014400099838883828193819B838A83E0E0F0E0A3
:1014500012968D919C911397009719F0FD01DC0174
:10146000F7CF8D919C9111979D012E5F3F4F820F79
:10147000931F20911003309111032817390769F445
:10148000309729F4109213031092120302C01382B2
:101490001282B0931103A0931003DF91CF910895AE
:1014A0006F927F928F929F92AF92BF92CF92DF9274
:1014B000EF92FF920F931F93CF93DF93009789F4DE
:1014C000CB01DF91CF911F910F91FF90EF90DF90B3
:1014D000CF90BF90AF909F908F907F906F900C9423
:1014E0002F09FC01E60FF71F9C0122503109E2177A
:1014F000F30708F4A9C0EC01D9010D911C911197D3
:1015000006171707B0F00530110508F49BC0C80195
:1015100004978617970708F495C002501109061B17
:10152000170B019311936D937C93CF010E94C70910
:1015300089C05B01A01AB10A4C01800E911EA091D6
:101540001203B0911303612C712CE12CF12C109734
:1015500009F446C08D919C911197A815B905B1F574
:101560006C0142E0C40ED11CCA14DB0478F14C01BA
:101570008A189B08640142E0C40ED11C1296BC90EC
:1015800012971396AC91B5E0CB16D10440F0B2821D
:10159000A38391828082D9016D937C9309C00E5FF1
:1015A0001F4F800F911FF90191838083EB2DFA2F3C
:1015B000E114F10431F0D7011396FC93EE931297E6
:1015C00041C0F0931303E09312033CC06816790600
:1015D00008F43C017D0112960D90BC91A02DB7CF6F
:1015E000809110039091110388169906E1F4661614
:1015F0007706C8F48091020290910302009741F4AB
:101600008DB79EB74091060250910702841B950B3F
:10161000E817F907C8F4F0931103E0931003F901F8
:10162000718360830FC0CB010E942F097C0100975A
:1016300059F0A801BE010E94350BCE010E94C709D6
:10164000C70104C0CE0102C080E090E0DF91CF91DD
:101650001F910F91FF90EF90DF90CF90BF90AF90D0
:101660009F908F907F906F900895FB01DC0102C0E6
:1016700001900D9241505040D8F70895FB01DC01D4
:1016800001900D920020E1F7089597FB072E16F4C4
:10169000009407D077FD09D00E94800B07FC05D08D
:1016A0003EF4909581959F4F0895709561957F4F79
:1016B0000895052E97FB1EF400940E94700B57FDB1
:1016C00007D00E94940B07FC03D04EF40C94700BCF
:1016D00050954095309521953F4F4F4F5F4F08955E
:1016E00090958095709561957F4F8F4F9F4F08958E
:1016F000EE0FFF1F881F8BBF0790F691E02D199406
:10170000AA1BBB1B51E107C0AA1FBB1FA617B70727
:1017100010F0A61BB70B881F991F5A95A9F7809543
:101720009095BC01CD010895A1E21A2EAA1BBB1B06
:10173000FD010DC0AA1FBB1FEE1FFF1FA217B3079D
:10174000E407F50720F0A21BB30BE40BF50B661FB3
:10175000771F881F991F1A9469F760957095809577
:1017600090959B01AC01BD01CF01089511E0C6E544
:10177000D1E000E006C0802FFE010E94780B219688
:10178000011DC735D10780E00807A9F7F894FFCFFE
:101790000500000014032000000034006800CCFFA6
:1017A0000000CCFF6800340044314C3142315233E8
:1017B000463355334C31523344335532523255331C
:1017C00052335533463255334C325531423244331D
:1017D0004632553346324C3255324C32553246320F
:0C17E00052324232523244324232000097
:00000001FF
