:100000000C944A010C947B010C947B010C947B01B1
:100010000C947B010C947B010C947B010C947B0170
:100020000C947B010C947B010C947B010C947B0160
:100030000C947B010C947B010C947B010C947B0150
:100040000C947B010C947B010C947B010C947B0140
:100050000C947B010C947B010C947B010C943D046B
:100060000C947B010C947B010C947B010C947B0120
:100070000C947B010C947B010C947B010C947B0110
:100080000C947B010C947B010C947B010C947B0100
:100090000C947B010C947B010C947B010C947B01F0
:1000A0000C947B010C947B010C947B010C947B01E0
:1000B0000C947B010C947B010C947B010C947B01D0
:1000C0000C947B010C947B010C947B010C947B01C0
:1000D0000C947B010C947B010C947B010C947B01B0
:1000E0000C947B01C701CA01BD01C1010102CE010F
:1000F000D201D801DC01E001E601EA01EE010102D2
:10010000F401F801FC01D402DA02E402F202F40282
:10011000FA0204031203240326030C94C7010C946F
:10012000CE010C94EE010C94DA020C9426030C948C
:10013000D2010C94E0010C94DC010C94FC010C94B1
:10014000FE060C9481070C94E6010C94E4020C94D6
:10015000F4010C94D4020C94BD010C94F4020C94A0
:10016000F2020C9424030C94F8010C94EA010C9410
:1001700001020C9412030C94CA010C9404030C9415
:10018000D8010C94FA020C94C1010000090A02087B
:100190000B0C0D0706030401000000000000000026
:1001A000000000000000000000000000000000004F
:1001B00000000000000011100F000000000000000F
:1001C000000000000000000000000000000000002F
:1001D00000002200250028002B002E0031003400F2
:1001E00002010000050108010B01000021002400AC
:1001F00027002A002D003000330001010000040117
:1002000007010A0105050505070508080808020297
:1002100002020A0A080804040404010101010101A0
:1002200001010303030303030303040707070C0C83
:100230000C0C0C0C0C0C020202020606060606064A
:1002400006060B0B0B0B0B0B0B0B010210202008EF
:100250000810204010204080020102010804020121
:100260000102040810204080804020100804020190
:1002700080040201804020100804020108040201E9
:100280000102040810204080010204081020408070
:10029000FE06810711241FBECFEFD1E2DEBFCDBF26
:1002A00000E00CBF12E0A0E0B2E0E2E5F4E100E023
:1002B0000BBF02C007900D92A035B107D9F723E01C
:1002C000A0E5B2E001C01D92A830B207E1F711E04D
:1002D000C9E4D1E000E006C021970109802FFE01AA
:1002E0000E94D909C834D10780E00807A9F70E9405
:1002F00087040C948D070C94000090E0FC01E65BF1
:10030000FD4F2491FC01EC5FFD4F8491882399F00F
:1003100090E0880F991FFC01E651FE4FA591B49122
:10032000FC01E053FE4F859194918FB7F894EC91C6
:10033000E22BEC938FBF0895362F90E0FC01E65737
:10034000FE4F4491FC01E65BFD4F2491FC01EC5F04
:10035000FD4F9491992309F468C0442309F451C0D6
:1003600050E0FA013197E131F10508F04AC08827E1
:10037000EE58FF4F8F4F0C94D909809180008F77F2
:1003800003C0809180008F7D809380003AC084B547
:100390008F7702C084B58F7D84BD33C08091B0005B
:1003A0008F7703C08091B0008F7D8093B00029C00B
:1003B000809190008F7707C0809190008F7D03C05F
:1003C00080919000877F809390001BC08091A00057
:1003D0008F7707C08091A0008F7D03C08091A0001F
:1003E000877F8093A0000DC0809120018F7707C088
:1003F000809120018F7D03C080912001877F8093B1
:100400002001E92FF0E0EE0FFF1FE053FE4FA59112
:10041000B4919FB7F894311104C08C912095282392
:1004200002C0EC912E2B2C939FBF08953FB7F894F8
:100430008091550290915602A0915702B0915802B6
:1004400026B5A89B05C02F3F19F00196A11DB11D2F
:100450003FBFBA2FA92F982F8827820F911DA11D6A
:10046000B11DBC01CD0142E0660F771F881F991FA7
:100470004A95D1F70895CF92DF92EF92FF92CF93F2
:10048000DF936B017C010E941602EB01C114D104C1
:10049000E104F10479F00E9416026C1B7D0B683EAA
:1004A0007340A0F381E0C81AD108E108F108C851EF
:1004B000DC4FECCFDF91CF91FF90EF90DF90CF90AA
:1004C00008950F931F93CF93DF93EC018B018885E1
:1004D00099850297F1F46130710569F024F4672B76
:1004E000C1F460E009C06230710559F063307105F4
:1004F00081F460E007C061E08C850E949C0161E0AE
:1005000005C061E08C850E949C0160E08E850E94A0
:100510009C01888599850497B9F501301105B1F0E2
:100520004CF40115110581F561E08C850E949C0158
:1005300060E011C002301105B9F00330110521F55A
:1005400061E08C850E949C0160E013C060E08C85B6
:100550000E949C0161E08E850E949C0161E0888977
:100560000E949C0160E00DC060E08C850E949C01AF
:1005700061E08E850E949C0160E088890E949C0158
:1005800061E08A890E949C0188859985059709F018
:1005900075C00A30110508F071C0F8018827ED57C1
:1005A000FF4F8F4F0C94D90960E08C850E949C010D
:1005B00061E051C060E08C850E949C0161E08E8505
:1005C0000E949C0160E04BC060E08C850E949C0111
:1005D00061E08E850E949C0160E088890E949C01F8
:1005E00061E041C060E001C061E08C850E949C0137
:1005F00061E005C061E08C850E949C0160E08E8511
:100600000E949C0160E009C061E08C850E949C0111
:1006100060E08E850E949C0161E088890E949C01B7
:1006200061E00DC061E08C850E949C0160E08E85D8
:100630000E949C0161E088890E949C0160E08A8997
:100640000E949C0160E013C061E001C060E08C8505
:100650000E949C0160E08E850E949C0161E0888977
:100660000E949C0160E08A890E949C0161E08C8963
:10067000DF91CF911F910F910C949C01DF91CF914D
:100680001F910F9108954F925F926F927F928F9278
:100690009F92AF92BF92CF92DF92EF92FF920F9311
:1006A0001F93CF93DF93EC018B0177FF04C00027EA
:1006B0001127061B170B161617062CF481E090E085
:1006C0009983888304C0672B11F01982188284E013
:1006D000E82EF12C9AE0C92ED12C0115110509F450
:1006E00049C00E9416028E889F88A88CB98C2B0165
:1006F0003C01481859086A087B088A809B80AC80B6
:10070000BD80481459046A047B0438F36E8B7F8BD8
:10071000888F998F288139818A859B852130310581
:1007200059F401969B878A872E813F818217930710
:1007300071F41B861A860BC0892B21F48E819F8150
:100740009B878A878A859B8501979B878A8701502B
:100750001109288539858A859B852530310511F455
:10076000B60101C0B7010E94A609BC01CE010E94DA
:100770006102B3CFDF91CF911F910F91FF90EF9066
:10078000DF90CF90BF90AF909F908F907F906F90B1
:100790005F904F900895EF92FF920F931F93CF9326
:1007A000DF93EC01842F1B861A86198218821E8A19
:1007B0001F8A188E198E7F836E834C875D873F87D3
:1007C0002E87198B088BFB8AEA8A0E947D018E8511
:1007D0000E947D0188890E947D018A890E947D0195
:1007E0001D8A1C8A84E090E099878887DF91CF91E9
:1007F0001F910F91FF90EF900895EF92FF920F934A
:100800001F93CF93DF93EC017B018A01888199814B
:10081000009729F02A813B8124173507F8F4B801A5
:100820006F5F7F4F0E94B108009759F099838883CA
:100830001B830A832C813D81232B81F4FC011082D0
:100840000DC088819981009711F00E9428081982B3
:1008500018821D821C821B821A8207C01D830C8392
:10086000B701888199810E949F09CE01DF91CF91C4
:100870001F910F91FF90EF9008951F920F920FB666
:100880000F9211242F933F938F939F93AF93BF9316
:100890008091510290915202A0915302B091540262
:1008A0003091500223E0230F2D3720F40196A11D33
:1008B000B11D05C026E8230F0296A11DB11D20938E
:1008C00050028093510290935202A0935302B0932E
:1008D00054028091550290915602A0915702B09116
:1008E00058020196A11DB11D8093550290935602A6
:1008F000A0935702B0935802BF91AF919F918F91EF
:100900003F912F910F900FBE0F901F9018957894E4
:1009100084B5826084BD84B5816084BD85B5826004
:1009200085BD85B5816085BD80916E0081608093B5
:100930006E0010928100809181008260809381001E
:10094000809181008160809381008091800081602E
:10095000809380008091B10084608093B100809189
:10096000B00081608093B00080919100826080939C
:10097000910080919100816080939100809190001E
:100980008160809390008091A10082608093A1009B
:100990008091A10081608093A1008091A00081607E
:1009A0008093A00080912101826080932101809139
:1009B00021018160809321018091200181608093D9
:1009C000200180917A00846080937A0080917A007F
:1009D000826080937A0080917A00816080937A00AF
:1009E00080917A00806880937A001092C1002091F3
:1009F000E2023091E302032E000C440B550B812CD4
:100A0000E7E89E2EE3E9AE2EE3E0BE2EC501B40179
:100A10000E94BA09F4EBCF2ED12CE12CF12CCA01A3
:100A2000B901A70196010E94BA092093DE02309312
:100A3000DF024093E0025093E1022091C80230911E
:100A4000C902032E000C440B550BC501B4010E94D2
:100A5000BA09CA01B901A70196010E94BA092093F7
:100A6000C4023093C5024093C6025093C70220913E
:100A7000940230919502032E000C440B550BC501D6
:100A8000B4010E94BA09CA01B901A70196010E94E6
:100A9000BA092093900230939102409392025093AE
:100AA00093022091AE023091AF02032E000C440B52
:100AB000550BC501B4010E94BA09CA01B901A701C9
:100AC00096010E94BA092093AA023093AB02409388
:100AD000AC025093AD0220917A0230917B02032E3A
:100AE000000C440B550BC501B4010E94BA09CA01A0
:100AF000B901A70196010E94BA09209376023093AA
:100B000077024093780250937902209160023091ED
:100B10006102032E000C440B550BC501B4010E9469
:100B2000BA09CA01B901A70196010E94BA09209326
:100B30005C0230935D0240935E0250935F028DE051
:100B40000E947D0100E010E080910002909101027E
:100B5000892B09F44CC1109201021092000268EB3B
:100B60007BE080E090E00E943B0240E050E06EE4D9
:100B700072E08DEF92E00E94FD036091F6027091A9
:100B8000F7026115710549F04091FA025091FB029C
:100B90008DEF92E00E94FD0314C08091FD029091C0
:100BA000FE02009711F00E9428081092FE02109297
:100BB000FD021092020310920103109200031092A2
:100BC000FF02E0900103F0900203C0E0D0E0CE15F8
:100BD000DF050CF00CC14091010350910203C417D2
:100BE000D50730F4E091FD02F091FE02309729F430
:100BF00010925902E9E5F2E002C0EC0FFD1F2081DE
:100C0000CE0101968417950730F4E091FD02F09132
:100C1000FE02309729F410925902E9E5F2E002C091
:100C2000E80FF91F8081082E000C990BC09726341D
:100C300079F1B4F4223409F4ABC0243409F0C7C00C
:100C4000880F991FFC01E85FFD4F6081718184E787
:100C500092E00E944303C0908002D090810288C03D
:100C6000223509F466C0253599F12C3409F0AFC05E
:100C7000880F991FFC01E85FFD4F6081718188EA50
:100C800092E00E944303C090B402D090B50240C0ED
:100C9000880F991FFC01E85FFD4F608171818CED29
:100CA00092E00E944303C090E802D090E902809154
:100CB000E8029091E90203968C159D050CF487C01B
:100CC00060E08C2D0E949C018FEFC81AD80AEFCFEC
:100CD000880F991FFC01E85FFD4F6081718182ECF4
:100CE00092E00E944303C090CE02D090CF02809148
:100CF000CE029091CF0203968C159D050CF467C02F
:100D000060E08C2D0E949C018FEFC81AD80AEFCFAB
:100D10008091B4029091B50203968C159D050CF458
:100D200056C060E08C2D0E949C018FEFC81AD80A33
:100D3000EFCF880F991FFC01E85FFD4F6081718143
:100D40008EE892E00E944303C0909A02D0909B02EA
:100D500080919A0290919B0203968C159D05BCF19F
:100D600060E08C2D0E949C018FEFC81AD80AF0CF4A
:100D7000809180029091810203968C159D053CF133
:100D800060E08C2D0E949C018FEFC81AD80AF0CF2A
:100D9000880F991FFC01E85FFD4F608171818AE532
:100DA00092E00E944303C0906602D0906702809157
:100DB00066029091670203968C159D0544F060E0F1
:100DC0008C2D0E949C018FEFC81AD80AF0CF61E0E9
:100DD0008DE00E949C0165E070E080E090E00E9460
:100DE0003B0260E08DE00E949C012296F0CE01154E
:100DF000110509F4A9CE0E940000A6CEEF92FF9241
:100E00000F931F93E6EFF2E0118210821382128299
:100E10001582148216824EE350E060E172E0CF0149
:100E20000E94FD03EDEFF2E0118210821382128224
:100E300015821482168240E050E06EE472E0CF0129
:100E40000E94FD038FE1E82EF12C0EE110E02DE170
:100E500030E04CE150E063ED70E08CED92E00E94F8
:100E6000CB0399E1E92EF12C08E110E027E130E015
:100E700046E150E064ED70E084E792E00E94CB032D
:100E800025E2E22EF12C04E210E023E230E042E21F
:100E900050E06EEC70E08AE592E00E94CB0339E20C
:100EA000E32EF12C08E210E027E230E046E250E0C9
:100EB0006EEC70E088EA92E00E94CB034FE2E42EF1
:100EC000F12C0EE210E02DE230E04CE250E06DEC4F
:100ED00070E082EC92E00E94CB0355E3E52EF12C0A
:100EE00004E310E023E330E042E350E060ED70E023
:100EF0008EE892E00E94CB031F910F91FF90EF903C
:100F000008958091FD029091FE020E942808809130
:100F1000F6029091F7020C942808F8940C94170AA2
:100F20000F931F93CF93DF938230910510F482E0EB
:100F300090E0E0910603F091070320E030E0A0E0AC
:100F4000B0E0309719F14081518102811381481737
:100F50005907C8F08417950769F4109731F0129675
:100F60000C93129713961C9327C0009306031093BB
:100F7000070322C02115310519F04217530718F451
:100F80009A01BD01EF01DF01F801DBCF2115310529
:100F9000F9F0281B390B2430310580F48A819B81BC
:100FA0006115710521F0FB019383828304C0909346
:100FB000070380930603FE01329644C0FE01E20F50
:100FC000F31F8193919322503109398328833AC0CA
:100FD0002091040330910503232B41F42091040256
:100FE00030910502309305032093040320910202FF
:100FF000309103022115310541F42DB73EB74091E0
:10100000060250910702241B350BE0910403F09176
:101010000503E217F307A0F42E1B3F0B281739072F
:1010200078F0AC014E5F5F4F2417350748F04E0F44
:101030005F1F50930503409304038193919302C073
:10104000E0E0F0E0CF01DF91CF911F910F91089583
:10105000CF93DF93009709F481C0FC01329713828C
:101060001282A0910603B0910703109781F42081AA
:101070003181820F931F20910403309105032817BB
:10108000390751F5F0930503E093040367C0ED01C0
:1010900020E030E0CE17DF0740F44A815B819E01FB
:1010A00041155105F1F0EA01F5CFD383C2834081A8
:1010B0005181840F951FC817D90759F488819981E8
:1010C000840F951F0296918380838A819B819383ED
:1010D00082832115310529F4F0930703E093060379
:1010E0003DC0E901FB83EA8349915991C40FD51FA3
:1010F000EC17FD0761F480819181840F951F0296A2
:10110000E90199838883828193819B838A83E0E0CC
:10111000F0E012968D919C911397009719F0FD01C4
:10112000DC01F7CF8D919C9111979D012E5F3F4F70
:10113000820F931F2091040330910503281739076C
:1011400069F4309729F4109207031092060302C045
:1011500013821282B0930503A0930403DF91CF9111
:1011600008956F927F928F929F92AF92BF92CF928B
:10117000DF92EF92FF920F931F93CF93DF9300972D
:1011800089F4CB01DF91CF911F910F91FF90EF90E8
:10119000DF90CF90BF90AF909F908F907F906F9097
:1011A0000C949007FC01E60FF71F9C0122503109B7
:1011B000E217F30708F4A9C0EC01D9010D911C91C5
:1011C000119706171707B0F00530110508F49BC0FA
:1011D000C80104978617970708F495C002501109B3
:1011E000061B170B019311936D937C93CF010E9403
:1011F000280889C05B01A01AB10A4C01800E911E1B
:10120000A0910603B0910703612C712CE12CF12C05
:10121000109709F446C08D919C911197A815B905B6
:10122000B1F56C0142E0C40ED11CCA14DB0478F1A4
:101230004C018A189B08640142E0C40ED11C12962E
:10124000BC9012971396AC91B5E0CB16D10440F048
:10125000B282A38391828082D9016D937C9309C06D
:101260000E5F1F4F800F911FF90191838083EB2D3B
:10127000FA2FE114F10431F0D7011396FC93EE93A9
:10128000129741C0F0930703E09306033CC0681631
:10129000790608F43C017D0112960D90BC91A02DB9
:1012A000B7CF809104039091050388169906E1F465
:1012B00066167706C8F480910202909103020097A7
:1012C00041F48DB79EB74091060250910702841BEE
:1012D000950BE817F907C8F4F0930503E0930403AE
:1012E000F901718360830FC0CB010E9490077C01DC
:1012F000009759F0A801BE010E949609CE010E94F4
:101300002808C70104C0CE0102C080E090E0DF9150
:10131000CF911F910F91FF90EF90DF90CF90BF90F2
:10132000AF909F908F907F906F900895FB01DC01AC
:1013300002C001900D9241505040D8F70895FB0132
:10134000DC0101900D920020E1F7089597FB072E34
:1013500016F4009407D077FD09D00E94E10907FC3C
:1013600005D03EF4909581959F4F089570956195B5
:101370007F4F0895052E97FB1EF400940E94D1091B
:1013800057FD07D00E94F50907FC03D04EF40C94DA
:10139000D10950954095309521953F4F4F4F5F4F64
:1013A000089590958095709561957F4F8F4F9F4FD1
:1013B0000895EE0FFF1F881F8BBF0790F691E02D59
:1013C0001994AA1BBB1B51E107C0AA1FBB1FA6177C
:1013D000B70710F0A61BB70B881F991F5A95A9F7DE
:1013E00080959095BC01CD010895A1E21A2EAA1B0B
:1013F000BB1BFD010DC0AA1FBB1FEE1FFF1FA217C5
:10140000B307E407F50720F0A21BB30BE40BF50BC1
:10141000661F771F881F991F1A9469F7609570954A
:10142000809590959B01AC01BD01CF01089511E01D
:10143000C9E4D1E000E006C0802FFE010E94D90976
:101440002196011DCA34D10780E00807A9F7F89456
:02145000FFCFCC
:1014520001000000080320000000CCFF68003400F7
:10146200463155314C314233463344324C314433A8
:101472004232523155334C334C3244314632553379
:101482004C3255324C324632553346325532443262
:101492004632553244324C32463252324C320000DD
:00000001FF
